:100000000C942A000C943F000C943F000C943F0089
:100010000C943F000C943F000C943F000C943F0064
:100020000C943F000C943F000C943F000C943F0054
:100030000C943F000C943F000C943F000C943F0044
:100040000C943F000C943F000C943F000C943F0034
:100050000C943F0011241FBECFE5D4E0DEBFCDBF1E
:1000600010E0A0E6B0E0ECEAF4E002C005900D92EA
:10007000A637B107D9F70E947F010C9454020C9463
:100080000000823419F118F4813439F00895833472
:10009000B1F1843409F44CC00895413059F42AB3C5
:1000A00081E090E002C0880F991F6A95E2F7822BE9
:1000B0008ABB08952AB381E090E002C0880F991F9F
:1000C0006A95E2F7809582238ABB0895413059F4FE
:1000D00027B381E090E002C0880F991F6A95E2F78C
:1000E000822B87BB089527B381E090E002C0880F80
:1000F000991F6A95E2F78095822387BB0895413066
:1001000059F424B381E090E002C0880F991F6A95EA
:10011000E2F7822B84BB089524B381E090E002C013
:10012000880F991F6A95E2F78095822384BB089512
:10013000413059F421B381E090E002C0880F991F4B
:100140006A95E2F7822B81BB089521B381E090E0AC
:1001500002C0880F991F6A95E2F78095822381BBC0
:100160000895823419F118F4813439F008958334F4
:10017000B1F1843409F44CC00895413059F42BB3E3
:1001800081E090E002C0880F991F6A95E2F7822B08
:100190008BBB08952BB381E090E002C0880F991FBC
:1001A0006A95E2F7809582238BBB0895413059F41C
:1001B00028B381E090E002C0880F991F6A95E2F7AA
:1001C000822B88BB089528B381E090E002C0880F9D
:1001D000991F6A95E2F78095822388BB0895413084
:1001E00059F425B381E090E002C0880F991F6A9509
:1001F000E2F7822B85BB089525B381E090E002C031
:10020000880F991F6A95E2F78095822385BB089530
:10021000413059F422B381E090E002C0880F991F69
:100220006A95E2F7822B82BB089522B381E090E0C9
:1002300002C0880F991F6A95E2F78095822382BBDE
:10024000089588BB85B38C7F85BBAA9A0000AA98C5
:100250008DEE92E00197F1F700C00000089588BB91
:10026000A99885B3856085BB0000AA9889EF90E0C6
:100270000197F1F700C00000089584B3876084BB44
:100280008FEF87BB87E893E10197F1F700C000008B
:1002900088E30E9421018CE00E94210186E00E94F7
:1002A000210181E00E94210180E80E94210108953E
:1002B000CF93DF93EC018881882331F021960E944F
:1002C0002F0189918111FBCFDF91CF910895CF93B9
:1002D000DF93EA01813031F4862F8F7080680E94AD
:1002E000210107C0823029F4862F8F70806C0E9414
:1002F0002101CE010E945801DF91CF91089517BAD4
:100300000E943D0141E050E067E070E084E490E04D
:100310000E94410010E20F2EF1EC7F2EF02D01E83B
:100320000F2EF0E88F2EF4E89F2EFEE1AF2EB12CB9
:10033000F02D1FBC18BF41E050E067E070E084E49E
:1003400090E00E94B10020E12A95F1F700C040E062
:1003500050E067E070E084E490E00E94B1007EBC71
:1003600008B605FEFDCF86B597B518BF0EBD08B619
:1003700005FEFDCF26B537B518BF1DBC1CBC1EBC85
:10038000281B390BA8E2B7E80E944502A501940199
:100390000E94230269017A01E90140E650E060E031
:1003A00081E00E94670187E893E10197F1F700C0BF
:1003B0000000C035D10580F049E650E060E082E001
:1003C0000E9467019FE926E881E09150204080402B
:1003D000E1F700C00000ADCF9601ADECBCEC0E948F
:1003E0004502EC01D695C795D695C795D695C79584
:1003F000AE01405D5F4F60E082E00E946701CE0188
:10040000880F991FCC0FDD1FCC0FDD1FCC0FDD1F18
:10041000C80FD91FCC1ADD0AA601405D5F4F60E00E
:1004200082E00E94670143E750E06CE082E00E94B6
:1004300067019FE926E881E0915020408040E1F784
:1004400000C0000076CFA1E21A2EAA1BBB1BFD0143
:100450000DC0AA1FBB1FEE1FFF1FA217B307E407A3
:10046000F50720F0A21BB30BE40BF50B661F771FFB
:10047000881F991F1A9469F76095709580959095DB
:100480009B01AC01BD01CF010895A29FB001B39FB4
:10049000C001A39F700D811D1124911DB29F700D8D
:0C04A000811D1124911D0895F894FFCFD8
:1004AC0044697374616E6365004E4F204F626A65D8
:0604BC00637400636D0093
:00000001FF
